:1000000007C13BC120C11FC11EC11DC11CC11BC1F5
:100010001AC119C154C217C116C115C114C10000BB
:10002000000000000000010102040507090B0E1189
:1000300014171B1F23272C3033383C404346484AB3
:100040004C4C4C4C4B494745423F3C3834312D29B0
:1000500025221F1B181513100E0C0A09070605048C
:100060000403030202020202030304050607090B4C
:100070000E1114171B20242A2F343B41474D53598E
:100080005F656A707476797C7C7C7C7A7976747032
:100090006D6964605B57524D4945413C3834312DA0
:1000A0002A2724211F1D1B1A19181717171717198C
:1000B0001A1C1E2124282C30353B41474F555E65C4
:1000C0006D767F879098A0A8B0B6BDC3C6CACDCDC7
:1000D000CDCDCBCAC8C6C3BFBAB6B1AEA9A4A0998C
:1000E00095908C87817D7975716E6A686563605FB4
:1000F0005E5D5B5B5B5D5E606365686C7075797FA0
:10010000848A90969EA4ABB3BAC1C8CFD6DCE1E78F
:10011000EDF1F5F9FDFDFFFFFDFDF9F5F1EDE7E18D
:10012000DCD6CFC8C1BAB3ABA49E96908A847F793F
:1001300075706C686563605E5D5B5B5B5D5E5F6098
:100140006365686A6E7175797D81878C909599A0D9
:10015000A4A9AEB1B6BABFC3C6C8CACBCDCDCDCDAA
:10016000CAC6C3BDB6B0A8A09890877F766D655EFD
:10017000554F47413B35302C2824211E1C1A191796
:100180001717171718191A1B1D1F2124272A2D317D
:1001900034383C4145494D52575B6064696D707419
:1001A00076797A7C7C7C7C797674706A655F595349
:1001B0004D47413B342F2A24201B1714110E0B09E5
:1001C00007060504030302020202020303040405F6
:1001D0000607090A0C0E101315181B1F2225292DBE
:1001E0003134383C3F424547494B4C4C4C4C4A48D3
:1001F0004643403C3833302C27231F1B1714110E65
:100200000B090705040201010000000000000000C6
:1002100011241FBECFE5D2E0DEBFCDBF10E0A0E6C7
:10022000B0E0EEE5F9E002C005900D92A036B1070E
:10023000D9F711E0A0E6B0E001C01D92A030B107EF
:10024000E1F7E5D28AC3DCCE109263008BB78064FD
:100250008BBF85B7806285BF7894889585B78F7D81
:1002600085BF87EE93E00197F1F700C00000F89496
:100270008BB78F7B8BBF789408951F920F920FB628
:100280000F9211248F93809163008F5F809363009E
:100290008F910F900FBE0F901F90189560E070E047
:1002A0001DC040E050E0FA01E25EFF4FE491EEBD78
:1002B00080E090E005C025E82A95F1F7000001965E
:1002C0002091600030E082179307A8F34F5F5F4FE3
:1002D00081E0413F580739F76F5F7F4F80916100A0
:1002E00090E068177907E8F21EBC08952F923F92BC
:1002F0004F925F926F927F928F929F92AF92BF9236
:10030000CF92DF92EF92FF920F931F93CF93DF93E1
:1003100000D000D0CDB7DEB71EBCBBD08824992456
:10032000540132E3632E1FE008E744E0742E8FE5AA
:100330009AEE0197F1F700C000002DD2009709F462
:1003400085C0C090F500D090F600E090F700F090E6
:10035000F8002F2C332444245524C701AA27BB2797
:1003600089839A83AB83BC83CD2CDE2CEF2CFF24B6
:1003700036D2822D3AD2898138D28C2D36D232D2E1
:1003800090E0A0E0B0E04091F5005091F60060915F
:10039000F7007091F80050706070707084179507C6
:1003A000A607B70709F051C0209260009981909389
:1003B0006100C092620080916100853010F07092FF
:1003C000610080916100882319F481E080936100CD
:1003D00080916200893710F0009362008091620082
:1003E0008F3010F41093620080916000813F18F00C
:1003F000A0EFA093600080916000823310F46092BF
:10040000600081E090E064E19AD282E090E061E0F7
:1004100096D283E090E06CE892D280E090E06EEDBE
:100420008ED280E080FF02C090E001C094E19EBDCA
:10043000EFECF7E03197F1F700C000008F5F8530F7
:1004400089F71EBC882499245401C4D00894811CC7
:10045000911CA11CB11CF4E18F169104A104B104FC
:1004600008F465CF0F900F900F900F90DF91CF9110
:100470001F910F91FF90EF90DF90CF90BF90AF90C2
:100480009F908F907F906F905F904F903F902F90B4
:100490000895F89482E08ABD91E093BF98EC99BDED
:1004A00012BE90E199BF7894809365001092F40099
:1004B0001092670010926600089519BE08951F9269
:1004C0000F920FB60F9211242F938F939F93EF9358
:1004D000FF9321E0B39B20E02093640080916600AD
:1004E00090916700019690936700809366008091D9
:1004F000F400863418F085E08093650080916500F3
:100500008330D1F0843020F4823009F059C006C025
:10051000843061F1853009F053C04CC0222309F0CA
:100520004FC080916600909167008436910508F471
:1005300043C01092F4001CC0213009F041C020914A
:10054000F400E22FF0E08091660090916700EE0FDA
:10055000FF1FEB59FF4F948383832F5F2093F40099
:10056000109267001092660084E021C02223B9F443
:100570002091F400E22FF0E08091660090916700F6
:10058000EE0FFF1FEB59FF4F948383832F5F209360
:10059000F400109267001092660083E008C080911A
:1005A0006600909167008536910550F085E0809354
:1005B000650006C0222321F41092670010926600A5
:1005C000FF91EF919F918F912F910F900FBE0F9000
:1005D0001F90189582E0809365001092F4000895B2
:1005E0000F931F93CF93DF93E091FB00F091FC00FA
:1005F00022813381273831052CF081E090E0233EC1
:10060000310514F080E090E0882309F4BAC08091AD
:10061000F4008430A1F5E091FB00F091FC0024810E
:100620003581213231052CF081E090E0293331050C
:1006300014F080E090E0882311F1E091FB00F0914C
:10064000FC0026813781283031052CF081E090E0D4
:100650002031310514F080E090E0882381F0109281
:10066000FA001092F9008FEF9FEFDC018093F50004
:100670009093F600A093F700B093F8007DC08091AE
:10068000F400843408F47DC0E091FB00F091FC009C
:1006900024813581233431052CF081E090E022372C
:1006A000310514F080E090E0882309F46AC0A6E0E8
:1006B000B0E040E050E0BA01E091FB00F091FC00B6
:1006C000EA0FFB1F80819181883091052CF021E099
:1006D00030E08031910514F020E030E0222309F46D
:1006E00050C0E091FB00F091FC00ED012296EC0F70
:1006F000FD1F80819181873191054CF021E030E030
:100700008932910514F020E030E0C90102C080E098
:1007100090E0882331F0440F551F661F771F41601A
:1007200018C0E091FB00F091FC00EC0FFD1F8081F0
:100730009181883091052CF021E030E08F309105D7
:1007400014F020E030E02223E1F0440F551F661F33
:10075000771F1496A638B10509F0AECF80E290E07D
:100760009093FA008093F9004093F5005093F600BF
:100770006093F7007093F80001E010E020E030E0B3
:1007800003C000E010E09801B801C901DF91CF91EA
:100790001F910F91089588E690E09093FC0080935C
:1007A000FB008091F40090E09093FE008093FD00A8
:1007B00080916500853081F4F89412DFDC01CB0173
:1007C00078940097A105B10519F081E090E00895B3
:1007D00001DF80E090E0089580E090E008951092BD
:1007E000FF0008958091FF0008959091FF009827E1
:1007F00088E03CE8292F269590FF03C0922F93278D
:1008000001C0922F8150B1F79093FF00089591E0BD
:1008100080E8E6E4F0E080839083479A379840B51B
:1008200024B135B1426081E090E002C0880F991F89
:100830002A95E2F7482B40BD85B78C7F85BF85B7E9
:10084000877E806185BF8FEF8DBD81E680BF80E0B0
:1008500090E06DD08E3DC9F084E18093620081E02C
:10086000809361008CE88093600081E090E064E117
:1008700066D082E090E061E062D083E090E06CE8D6
:100880005ED080E090E06EED5AD081E090E04FD0F5
:100890008093620082E090E04AD08093610083E020
:1008A00090E045D08093600080916100853018F021
:1008B00084E08093610080916100882319F481E0D5
:1008C0008093610080916200893718F088E78093F7
:1008D0006200809162008F3018F48FE08093620094
:1008E00080916000813F18F080EF809360008091DC
:1008F0006000823318F482E38093600011E0D2E15B
:10090000C1E1DBDD1EBC87EE93E00197F1F700C08B
:10091000000017BA18BB98DC9091630080916200C8
:10092000981778F3D7BBC8BBB9DCE0DCEACFE19914
:10093000FECF9FBB8EBBE09A99278DB30895262FDB
:10094000E199FECF1CBA9FBB8EBB2DBB0FB6F894AE
:0E095000E29AE19A0FBE01960895F894FFCF47
:00000001FF
