:1000000007C13BC120C11FC11EC11DC11CC11BC1F5
:100010001AC119C12AC217C116C115C114C10000E5
:10002000010305080B0E12161B20252B30363C420F
:10003000484E53595F646A6F73787C808386888AE0
:100040008C8C8C8C8B898785827F7C7874706C67B4
:10005000625E59544F4A46413C3834302C282522A0
:10006000201E1C1B1A1A1A1B1D1F2225292D323770
:100070003C42484E545B61686E747B81878D9297D9
:100080009CA1A5A9ACAEB0B2B2B2B2B1B0AEACA9AF
:10009000A7A4A09D9995918D8985817C7874706CB9
:1000A0006864605D5A575452504F4D4D4D4D4E50FF
:1000B0005255585C60656A6F757B81878E949BA1F1
:1000C000A7AEB4BAC0C5CACFD4D8DCDFE1E3E5E55A
:1000D000E5E5E4E3E2E1DFDDDAD8D5D3D0CDCAC689
:1000E000C3C0BDBAB6B3B0ADAAA8A5A3A19F9D9C3D
:1000F0009B9A9999999A9B9D9FA1A3A6A9ADB0B4EB
:10010000B8BCC0C4C9CDD1D6DADEE2E6EAEDF0F380
:10011000F6F8FAFCFEFEFFFFFEFEFCFAF8F6F3F03E
:10012000EDEAE6E2DEDAD6D1CDC9C4C0BCB8B4B0DF
:10013000ADA9A6A3A19F9D9B9A9999999A9B9C9DD5
:100140009FA1A3A5A8AAADB0B3B6BABDC0C3C6CA85
:10015000CDD0D3D5D8DADDDFE1E2E3E4E5E5E5E5CE
:10016000E3E1DFDCD8D4CFCAC5C0BAB4AEA7A19B47
:10017000948E87817B756F6A65605C585552504ECE
:100180004D4D4D4D4F505254575A5D6064686C70E0
:1001900074787C8185898D9195999DA0A4A7A9AC3F
:1001A000AEB0B1B2B2B2B2B0AEACA9A5A19C9792BA
:1001B0008D87817B746E68615B544E48423C373258
:1001C0002D2925221F1D1B1A1A1A1B1C1E20222531
:1001D000282C3034383C41464A4F54595E62676C93
:1001E0007074787C7F828587898B8C8C8C8C8A88D4
:1001F0008683807C78736F6A645F59534E48423CB3
:1002000036302B25201B16120E0B080503010000AB
:1002100011241FBECFE5D2E0DEBFCDBF10E0A0E6C7
:10022000B0E0E4ECF8E002C005900D92A036B10712
:10023000D9F711E0A0E6B0E001C01D92A030B107EF
:10024000E1F7BBD23DC3DCCE109263008BB7806474
:100250008BBF85B7806285BF7894889585B78F7D81
:1002600085BF87EE93E00197F1F700C00000F89496
:100270008BB78F7B8BBF789408951F920F920FB628
:100280000F9211248F93809163008F5F809363009E
:100290008F910F900FBE0F901F90189560E070E047
:1002A0001DC040E050E0FA01E25EFF4FE491EEBD78
:1002B00080E090E005C025E82A95F1F7000001965E
:1002C0002091600030E082179307A8F34F5F5F4FE3
:1002D00081E0413F580739F76F5F7F4F80916100A0
:1002E00090E068177907E8F208954F925F926F9255
:1002F0007F928F929F92AF92BF92CF92DF92EF92B6
:10030000FF921F93CF93DF9300D000D0CDB7DEB71D
:100310001EBC95D088249924540114E08FE798E3FB
:10032000A1E081509040A040E1F700C0000009D258
:10033000009709F464C0C090F500D090F600E090FA
:10034000F700F090F8004F2C552466247724C7015D
:10035000AA27BB2789839A83AB83BC83CD2CDE2C51
:10036000EF2CFF2412D2842D16D2898114D28C2D29
:1003700012D20ED290E0A0E0B0E04091F500509192
:10038000F6006091F7007091F80050706070707026
:1003900084179507A607B70789F5409260009981F1
:1003A00090936100C092620080916100853010F0EE
:1003B0001093610081E090E06FE074D282E090E001
:1003C00061E070D283E090E06CE86CD280E090E075
:1003D0006EED68D280E080FF02C090E001C094E141
:1003E0009EBDAFECB7E01197F1F700C000008F5F42
:1003F000853089F71EBC882499245401C1D0089403
:10040000811C911CA11CB11CBEE18B169104A1049E
:10041000B10408F483CF0F900F900F900F90DF91ED
:10042000CF911F91FF90EF90DF90CF90BF90AF9052
:100430009F908F907F906F905F904F900895F89469
:1004400082E08ABD91E093BF98EC99BD12BE90E125
:1004500099BF7894809365001092F4001092670021
:1004600010926600089519BE08951F920F920FB65C
:100470000F9211242F938F939F93EF93FF9321E07B
:10048000B39B20E020936400809166009091670008
:10049000019690936700809366008091F400863403
:1004A00018F085E080936500809165008330D1F07D
:1004B000843020F4823009F059C006C0843061F1E4
:1004C000853009F053C04CC0222309F04FC0809101
:1004D0006600909167008436910508F443C010923D
:1004E000F4001CC0213009F041C02091F400E22F3B
:1004F000F0E08091660090916700EE0FFF1FEB59CE
:10050000FF4F948383832F5F2093F4001092670042
:100510001092660084E021C02223B9F42091F400F7
:10052000E22FF0E08091660090916700EE0FFF1FD0
:10053000EB59FF4F948383832F5F2093F400109235
:1005400067001092660083E008C080916600909179
:1005500067008536910550F085E08093650006C000
:10056000222321F41092670010926600FF91EF9110
:100570009F918F912F910F900FBE0F901F90189504
:1005800082E0809365001092F40008950F931F930A
:10059000CF93DF93E091FB00F091FC002281338147
:1005A000273831052CF081E090E0233E310514F02E
:1005B00080E090E0882309F4BAC08091F400843090
:1005C000A1F5E091FB00F091FC00248135812132FE
:1005D00031052CF081E090E02933310514F080E002
:1005E00090E0882311F1E091FB00F091FC0026815E
:1005F0003781283031052CF081E090E02031310541
:1006000014F080E090E0882381F01092FA001092BC
:10061000F9008FEF9FEFDC018093F5009093F600D7
:10062000A093F700B093F8007DC08091F40084346B
:1006300008F47DC0E091FB00F091FC00248135813D
:10064000233431052CF081E090E02237310514F09D
:1006500080E090E0882309F46AC0A6E0B0E040E0C2
:1006600050E0BA01E091FB00F091FC00EA0FFB1FA3
:1006700080819181883091052CF021E030E080313B
:10068000910514F020E030E0222309F450C0E091FD
:10069000FB00F091FC00ED012296EC0FFD1F808124
:1006A0009181873191054CF021E030E0893291054C
:1006B00014F020E030E0C90102C080E090E088231F
:1006C00031F0440F551F661F771F416018C0E0913D
:1006D000FB00F091FC00EC0FFD1F808191818830C0
:1006E00091052CF021E030E08F30910514F020E0EE
:1006F00030E02223E1F0440F551F661F771F149648
:10070000A638B10509F0AECF80E290E09093FA00F0
:100710008093F9004093F5005093F6006093F70042
:100720007093F80001E010E020E030E003C000E04A
:1007300010E09801B801C901DF91CF911F910F918D
:10074000089588E690E09093FC008093FB008091F0
:10075000F40090E09093FE008093FD00809165008E
:10076000853081F4F89412DFDC01CB017894009796
:10077000A105B10519F081E090E0089501DF80E066
:1007800090E0089580E090E008951092FF000895B1
:100790008091FF0008959091FF00982788E03CE841
:1007A000292F269590FF03C0922F932701C0922FE7
:1007B0008150B1F79093FF00089591E080E8E6E45E
:1007C000F0E080839083479A379840B524B135B1E3
:1007D000426081E090E002C0880F991F2A95E2F7FD
:1007E000482B40BD85B78C7F85BF85B7877E8061EC
:1007F00085BF8FEF8DBD81E680BF80E090E04AD05D
:100800008E3D01F18FE08093620081E08093610072
:100810008CE88093600080916100853018F084E05E
:100820008093610081E090E06FE03CD082E090E056
:1008300061E038D083E090E06CE834D080E090E074
:100840006EED30D081E090E025D08093620082E0B0
:1008500090E020D08093610083E090E01BD08093F3
:10086000600011E0D2E1C1E1FEDD1EBC87EE93E045
:100870000197F1F700C0000017BA18BBE5DC9091B2
:10088000630080916200981778F3D7BBC8BB06DD80
:100890002CDDEACFE199FECF9FBB8EBBE09A992772
:1008A0008DB30895262FE199FECF1CBA9FBB8EBB56
:1008B0002DBB0FB6F894E29AE19A0FBE0196089507
:0408C000F894FFCFDA
:00000001FF
